{
  "contractName": "government",
  "abi": [
    {
      "constant": false,
      "inputs": [
        {
          "internalType": "uint256",
          "name": "transcation_id",
          "type": "uint256"
        },
        {
          "internalType": "uint256",
          "name": "plans_id",
          "type": "uint256"
        },
        {
          "internalType": "string",
          "name": "transcationid",
          "type": "string"
        },
        {
          "internalType": "string",
          "name": "transcation_name",
          "type": "string"
        },
        {
          "internalType": "string",
          "name": "details",
          "type": "string"
        },
        {
          "internalType": "string",
          "name": "amount",
          "type": "string"
        },
        {
          "internalType": "string",
          "name": "date",
          "type": "string"
        },
        {
          "internalType": "string",
          "name": "status",
          "type": "string"
        }
      ],
      "name": "add_transactionss",
      "outputs": [],
      "payable": false,
      "stateMutability": "nonpayable",
      "type": "function"
    }
  ],
  "bytecode": "0x608060405234801561001057600080fd5b50610654806100206000396000f3fe608060405234801561001057600080fd5b506004361061002b5760003560e01c80636a02438414610030575b600080fd5b6103f1600480360361010081101561004757600080fd5b8101908080359060200190929190803590602001909291908035906020019064010000000081111561007857600080fd5b82018360208201111561008a57600080fd5b803590602001918460018302840111640100000000831117156100ac57600080fd5b91908080601f016020809104026020016040519081016040528093929190818152602001838380828437600081840152601f19601f8201169050808301925050505050505091929192908035906020019064010000000081111561010f57600080fd5b82018360208201111561012157600080fd5b8035906020019184600183028401116401000000008311171561014357600080fd5b91908080601f016020809104026020016040519081016040528093929190818152602001838380828437600081840152601f19601f820116905080830192505050505050509192919290803590602001906401000000008111156101a657600080fd5b8201836020820111156101b857600080fd5b803590602001918460018302840111640100000000831117156101da57600080fd5b91908080601f016020809104026020016040519081016040528093929190818152602001838380828437600081840152601f19601f8201169050808301925050505050505091929192908035906020019064010000000081111561023d57600080fd5b82018360208201111561024f57600080fd5b8035906020019184600183028401116401000000008311171561027157600080fd5b91908080601f016020809104026020016040519081016040528093929190818152602001838380828437600081840152601f19601f820116905080830192505050505050509192919290803590602001906401000000008111156102d457600080fd5b8201836020820111156102e657600080fd5b8035906020019184600183028401116401000000008311171561030857600080fd5b91908080601f016020809104026020016040519081016040528093929190818152602001838380828437600081840152601f19601f8201169050808301925050505050505091929192908035906020019064010000000081111561036b57600080fd5b82018360208201111561037d57600080fd5b8035906020019184600183028401116401000000008311171561039f57600080fd5b91908080601f016020809104026020016040519081016040528093929190818152602001838380828437600081840152601f19601f8201169050808301925050505050505091929192905050506103f3565b005b6103fb610535565b6040518061010001604052808a8152602001898152602001888152602001878152602001868152602001858152602001848152602001838152509050600081908060018154018082558091505090600182039060005260206000209060080201600090919290919091506000820151816000015560208201518160010155604082015181600201908051906020019061049592919061057a565b5060608201518160030190805190602001906104b292919061057a565b5060808201518160040190805190602001906104cf92919061057a565b5060a08201518160050190805190602001906104ec92919061057a565b5060c082015181600601908051906020019061050992919061057a565b5060e082015181600701908051906020019061052692919061057a565b50505050505050505050505050565b60405180610100016040528060008152602001600081526020016060815260200160608152602001606081526020016060815260200160608152602001606081525090565b828054600181600116156101000203166002900490600052602060002090601f016020900481019282601f106105bb57805160ff19168380011785556105e9565b828001600101855582156105e9579182015b828111156105e85782518255916020019190600101906105cd565b5b5090506105f691906105fa565b5090565b61061c91905b80821115610618576000816000905550600101610600565b5090565b9056fea265627a7a723158204698b69555428b63cf45b60b7304fcb0718d17e7e6c60ec551e7d88db01a7c8c64736f6c63430005100032",
  "source": "pragma solidity >= 0.5.0 < 0.7.0;\ncontract government{\n struct transactionss{\n\t// State variables\n\t uint transcation_id;\n\t uint plans_id;\n\t string transcationid;\n\t string transcation_name;\n\t string details;\n\t string amount;\n\t string date;\n\t string status;\n\n}\n\n\n\ntransactionss []p;\n\n\n\nfunction add_transactionss(uint transcation_id,uint plans_id, string memory transcationid, string memory transcation_name,string memory details,string memory amount,string memory date,\n\tstring memory status) public{\n\ttransactionss memory p1=transactionss(transcation_id,plans_id,transcationid,transcation_name,details,amount,date,status);\n\tp.push(p1);\n}\n\n}\n",
  "sourcePath": "X:\\e-government\\node_modules\\.bin\\contracts\\sample.sol",
  "compiler": {
    "name": "solc",
    "version": "0.5.16+commit.9c3226ce.Emscripten.clang"
  },
  "schemaVersion": "3.4.8",
  "updatedAt": "2024-05-14T06:20:59.623Z",
  "networkType": "ethereum",
  "devdoc": {
    "methods": {}
  },
  "userdoc": {
    "methods": {}
  }
}